:020000040800F2
:1000000030040020490100081F04000817040008FC
:100010001B040008BD0100082109000800000000C1
:100020000000000000000000000000007D07000844
:10003000E50200080000000059070008BD0800089C
:100040006301000863010008630100086301000800
:1000500063010008630100086301000863010008F0
:1000600063010008630100086301000863010008E0
:1000700063010008630100086301000863010008D0
:1000800063010008630100086301000863010008C0
:1000900063010008630100086301000863010008B0
:1000A00063010008630100086301000863010008A0
:1000B0006301000863010008630100086301000890
:1000C0006301000863010008630100086301000880
:1000D0006301000863010008630100086301000870
:1000E0006301000863010008630100086301000860
:1000F0006301000863010008630100086301000850
:10010000630100086301000863010008630100083F
:10011000630100086301000863010008630100082F
:10012000630100086301000863010008630100081F
:10013000DFF810D000F030F8004800475D0B0008F1
:10014000AFF300803004002006488047064800478F
:10015000FEE7FEE7FEE7FEE7FEE7FEE7FEE7FEE777
:10016000FEE7FEE7C10800083101000830B50B4684
:10017000014600202022012409E021FA02F59D42D7
:1001800005D303FA02F5491B04FA02F52844151EAB
:10019000A2F10102F1DC30BD064C074D06E0E0683B
:1001A00040F0010394E8070098471034AC42F6D3BE
:1001B000FFF7C2FF1C1B00083C1B000800BFFEE746
:1001C00038B504460121042000F0C8FA102108487F
:1001D00000F01FF98DF803401020ADF80000032057
:1001E0008DF802006946024800F07DF838BD000035
:1001F0000008014070B500251DE06006040E00BF38
:1002000010210F4800F0FAF80028F9D01C2000F067
:1002100081FC10210A4800F0F1F810B144F001040B
:1002200001E024F0010400BF1021054800F0E6F8C9
:100230000028F9D16D1C082DDFDB204670BD0000C1
:100240000008014010B5044600F01EF870B1FFF739
:10025000D1FF2070FFF7CEFF6070FFF7CBFFA070DB
:10026000FFF7C8FFE070FFF7C5FF207120786178C5
:100270000844A1780844E17808442179884201D1F2
:10028000012010BD0020FCE710B51020FFF798FFFB
:100290001021134800F0BBF8142000F017FC1021C7
:1002A0000F4800F0B6F80420FFF78AFF142000F092
:1002B00031FC10210A4800F0A1F878B900BF1021E4
:1002C000074800F09BF80028F9D000BF102104482F
:1002D00000F094F80028F9D1012010BD0020FCE7BF
:1002E0000008014070472DE9F04102460025002634
:1002F000002000230024002791F803C00CF00F0514
:1003000091F803C00CF0100CBCF1000F03D091F871
:1003100002C04CEA050591F800C0BCF1000F31D0D5
:10032000146800202BE04FF0010C0CFA00F3B1F838
:1003300000C00CEA03069E4220D183004FF00F0C50
:100340000CFA03F7BC4305FA03FC4CEA040491F8E9
:1003500003C0BCF1280F06D14FF0010C0CFA00FCD1
:10036000C2F814C00AE091F803C0BCF1480F05D1EF
:100370004FF0010C0CFA00FCC2F810C0401C082819
:10038000D1D31460B1F800C0BCF1FF0F34DD546864
:1003900000202EE000F1080C4FF0010808FA0CF3E1
:1003A000B1F800C00CEA03069E4221D183004FF051
:1003B0000F0C0CFA03F7BC4305FA03FC4CEA0404E7
:1003C00091F803C0BCF1280F05D100F1080C08FA20
:1003D0000CF8C2F8148091F803C0BCF1480F07D1A3
:1003E00000F1080C4FF0010808FA0CF8C2F8108070
:1003F000401C0828CED35460BDE8F081024600209E
:1004000093680B400BB1012000E000207047416170
:1004100070470161704700BFFEE700BFFEE770470D
:1004200070B5002419E004F1B001C8B2002100F059
:1004300051F90021022000F04DF90021102000F0B8
:1004400049F9002505E00121002000F043F9681C6E
:10045000C5B2802DF7DB601CC4B2082CE3DB70BD95
:1004600008B50121402000F079F94FF40070ADF893
:10047000000010208DF8030003208DF8020069466B
:100480005D48FFF730FF4FF40060ADF8000010202A
:100490008DF8030003208DF8020069465648FFF7E7
:1004A00022FF4FF40040ADF8000010208DF803004B
:1004B00003208DF8020069464F48FFF714FF4FF400
:1004C0000050ADF8000010208DF8030003208DF8D7
:1004D000020069464848FFF706FF4FF4007146489E
:1004E000FFF797FF4FF400614348FFF792FF4FF487
:1004F00000414148FFF78DFF4FF400513E48FFF7A0
:1005000088FF0021AE2000F0E5F80021022000F075
:10051000E1F80021102000F0DDF80021402000F07B
:10052000D9F80021812000F0D5F80021CF2000F07B
:10053000D1F80021A12000F0CDF80021C82000F062
:10054000C9F80021A62000F0C5F80021A82000F07D
:10055000C1F800213F2000F0BDF80021D32000F0B9
:10056000B9F80021084600F0B5F80021D52000F0C8
:10057000B1F80021802000F0ADF80021D92000F072
:10058000A9F80021F12000F0A5F80021DA2000F000
:10059000A1F80021122000F09DF80021DB2000F0DE
:1005A00099F80021402000F095F80021202000F06B
:1005B00091F80021022000F08DF800218D2000F03C
:1005C00089F80021142000F085F80021A42000F013
:1005D00081F80021A62000F07DF80021AF2000F076
:1005E00079F80021AF2000F075F8FFF719FF00211E
:1005F000084600F003F808BD0018014070B5044635
:100600000D4605F1B001C8B2002100F063F81021D9
:1006100041EA1410002100F05DF804F00F0141F0F0
:100620000100002100F056F870BD00002DE9F041F6
:1006300007460E46904600250024A8F12000C5B2CA
:100640007F2F02DD0027B01CC6B231463846FFF7C7
:10065000D5FF002408E004EB05110F4A505C01218E
:1006600000F038F8601CC4B2082CF4DB701CC1B276
:100670003846FFF7C3FF002409E004EB05110831F9
:10068000054A505C012100F025F8601CC4B2082C1A
:10069000F3DBBDE8F0810000EC0D00082DE9F0412E
:1006A00004460F46154600260EE0AA5D3946204650
:1006B000FFF7BCFF04F10800C4B2782C02DD00246F
:1006C000B81CC7B2701CC6B2A85D0028EDD1BDE849
:1006D000F081000070B504460E462EB14FF4006163
:1006E0001C48FFF796FE04E04FF400611948FFF73D
:1006F0008EFE4FF400711748FFF789FE00251BE0BE
:100700004FF400411348FFF782FE04F0800028B147
:100710004FF400510F48FFF77CFE04E04FF4005106
:100720000C48FFF774FE4FF400410A48FFF771FED2
:100730006006040E681CC5B2082DE1DB4FF40071A1
:100740000448FFF766FE4FF400610248FFF761FEC0
:1007500070BD0000001801407047000029B1064A32
:1007600092690243044B9A6104E0034A926982430E
:10077000014B9A617047000000100240704710B5AD
:1007800000F002F810BD00000CB5002001900090B0
:100790003348006840F480303149086000BF304879
:1007A000006800F4003000900198401C019000980F
:1007B00018B90198B0F5A06FF1D12948006800F48C
:1007C000003010B10120009001E00020009000985E
:1007D000012843D12348006840F0100021490860F7
:1007E0000846006820F0030008600846006840F0F2
:1007F000020008601A484068194948600846406885
:1008000048600846406840F4806048600846406898
:1008100020F47C1048600846406840F4E8104860C6
:100820000846006840F08070086000BF0C4800680F
:1008300000F000700028F9D00948406820F003005B
:10084000074948600846406840F00200486000BF21
:100850000348406800F00C000828F9D10CBD0000E6
:10086000001002400020024030B50146B1F1807F07
:1008700001D3012030BD21F07F40401E4FF0E02227
:10088000506150170F22002807DA13071D0E094B7D
:1008900000F00F04241F1D5503E013071C0E064B28
:1008A0001C5400BF00204FF0E0229061072010612F
:1008B0000020DFE718ED00E000E400E070470000F2
:1008C00010B51348006840F001001149086008465F
:1008D0004068104908400E494860084600680E49C3
:1008E00008400B4908600846006820F48020086032
:1008F0000846406820F4FE0048604FF41F008860FE
:10090000FFF73DFF4FF000600449086010BD000094
:10091000001002400000FFF8FFFFF6FE08ED00E0C7
:1009200000BFFEE70FB4084B10B504A902AA039854
:1009300000F01CF8044602A9002000F0C1F820468F
:1009400010BC5DF814FB0000C10A000802E008C8F2
:10095000121F08C1002AFAD170477047002001E039
:1009600001C1121F002AFBD1704700002DE9FF4F83
:1009700089B09B460446002506E025280BD05A4640
:100980000B999047641C6D1C20780028F5D10DB0A0
:100990002846BDE8F08F0027B8460122474900E00D
:1009A000074314F8013F203B02FA03F00842F7D155
:1009B00020782E2819D114F8010F47F004072A28AF
:1009C0000ED06FF02F022078A0F1300109290CD849
:1009D00008EB880102EB410100EB0108641CF2E71F
:1009E0000A98641C50F8048B0A9020780028CED016
:1009F000642808D0692806D075281ED05A460B995D
:100A000090476D1C58E00A994FF00A0901C90A91F4
:100A1000002802DA40422D2102E0390504D52B21BD
:100A20008DF82010012103E0F90704D02021F7E719
:100A30008A4608AE0DE00021FAE70A994FF00A094C
:100A400001C90A91F7E74946FFF790FB303106F8F4
:100A5000011D0028F7D1ADEB060000F12009780751
:100A600001D44FF00108C84502DDA8EB090000E001
:100A700000208046002706E008A85A46C05D0B9972
:100A800090476D1C7F1C5745F6DB04E030205A462A
:100A90000B9990476D1CB8F10001A8F10108F5DC35
:100AA00005E016F8010B5A460B9990476D1CB9F1F9
:100AB0000001A9F10109F4DC641C65E709280100C3
:100AC0000A68531C0B6010707047000070B5044634
:100AD0000F4800684FF47A71B0FBF1F52846FFF734
:100AE000C3FE002008E000BF4FF0E021096901F4D7
:100AF00080310029F8D0401CA042F4D34FF0E02010
:100B0000006920F001004FF0E021086170BD000095
:100B10000800002070B504460E4800680E49B0FB7E
:100B2000F1F52846FFF7A0FE002008E000BF4FF0D7
:100B3000E021096901F480310029F8D0401CA0426D
:100B4000F4D34FF0E020006920F001004FF0E021E5
:100B5000086170BD0800002040420F00FFF780FCD4
:100B60001FE01048FFF76EFBB8B10E48C3788278DB
:100B70000DA11048FFF7D6FE0E4A02211C20FFF7F8
:100B80008DFD0848437802780BA10A48FFF7CAFE9A
:100B9000084A04211C20FFF781FD4FF4FA60FFF79B
:100BA00095FFDEE70000002054656D703A25642E45
:100BB000256400001C00002048756D693A25642EEC
:100BC000256400000000000000000000002F00006D
:100BD00000000700070000147F147F1400242A7F00
:100BE0002A1200626408132300364955225000007F
:100BF0000503000000001C224100000041221C00EF
:100C00000014083E08140008083E0808000000A070
:100C1000600000080808080800006060000000206C
:100C200010080402003E5149453E0000427F40004A
:100C3000004261514946002141454B3100181412D0
:100C40007F10002745454539003C4A49493000019D
:100C50007109050300364949493600064949291EEC
:100C6000000036360000000056360000000814224E
:100C7000410000141414141400004122140800024E
:100C80000151090600324959513E007C1211127C73
:100C9000007F49494936003E41414122007F4141A0
:100CA000221C007F49494941007F09090901003E92
:100CB0004149497A007F0808087F0000417F4100D0
:100CC000002040413F01007F08142241007F404046
:100CD0004040007F020C027F007F0408107F003E2E
:100CE0004141413E007F09090906003E4151215E14
:100CF000007F091929460046494949310001017F11
:100D00000101003F4040403F001F2040201F003FA6
:100D10004038403F00631408146300070870080758
:100D200000615149454300007F41410000552A556B
:100D30002A55000041417F000004020102040040E6
:100D40004040404000000102040000205454547808
:100D5000007F484444380038444444200038444428
:100D6000487F00385454541800087E0901020018C6
:100D7000A4A4A47C007F080404780000447D400003
:100D8000004080847D00007F102844000000417FE7
:100D90004000007C04180478007C080404780038C3
:100DA0004444443800FC242424180018242418FC4B
:100DB000007C0804040800485454542000043F44B4
:100DC0004020003C4040207C001C2040201C003C77
:100DD0004030403C004428102844001CA0A0A07CC7
:100DE000004464544C4414141414141400000000FF
:100DF000000000000000000000000000000000F8FB
:100E000000000000000000333000000000100C065D
:100E1000100C0600000000000000000040C07840F8
:100E2000C0784000043F04043F040400007088FCC4
:100E300008300000001820FF211E0000F008F0001C
:100E4000E018000000211C031E211E0000F008888D
:100E5000700000001E2123241927211010160E00F7
:100E6000000000000000000000000000000000E0A2
:100E700018040200000000071820400000020418B7
:100E8000E00000000040201807000000404080F013
:100E9000804040000202010F01020200000000F049
:100EA000000000000101011F01010100000000001D
:100EB0000000000080B07000000000000000000092
:100EC000000000000001010101010101000000001B
:100ED00000000000003030000000000000000000B2
:100EE00080601804006018060100000000E010088F
:100EF0000810E000000F102020100F00001010F864
:100F0000000000000020203F2020000000700808A2
:100F10000888700000302824222130000030088822
:100F2000884830000018202020110E000000C0204A
:100F300010F8000000070424243F240000F808886B
:100F4000880808000019212020110E0000E01088F8
:100F500088180000000F112020110E00003808082A
:100F6000C83808000000003F00000000007088083A
:100F700008887000001C222121221C0000E01008BB
:100F80000810E0000000312222110F00000000C014
:100F9000C0000000000000303000000000000080B1
:100FA00000000000000080600000000000008040A1
:100FB00020100800000102040810200040404040BA
:100FC000404040000404040404040400000810200D
:100FD0004080000000201008040201000070480852
:100FE0000808F0000000003036010000C030C828BA
:100FF000E810E0000718272423140B000000C03875
:10100000E0000000203C23020227382008F88888EE
:1010100088700000203F202020110E00C0300808FA
:1010200008083800071820202010080008F80808D1
:101030000810E000203F202020100F0008F88888CA
:10104000E8081000203F20202320180008F8888896
:10105000E8081000203F200003000000C03008080E
:101060000838000007182020221E020008F8080097
:101070000008F808203F210101213F20000808F85E
:10108000080800000020203F202000000000080881
:10109000F8080800C08080807F00000008F888C041
:1010A00028180800203F20012638200008F80800F2
:1010B00000000000203F20202020300008F8F80029
:1010C000F8F80800203F003F003F200008F830C03B
:1010D0000008F808203F200007183F00E01008082B
:1010E0000810E0000F10202020100F0008F808085A
:1010F0000808F000203F210101010000E01008086D
:101100000810E0000F18242438504F0008F8888891
:1011100088887000203F2000030C30200070880871
:10112000080838000038202121221C00180808F87F
:10113000080818000000203F2000000008F8080000
:101140000008F808001F202020201F0008788800D1
:1011500000C83808000007380E010000F80800F841
:101160000008F800033C0700073C030008186880EB
:101170008068180820302C03032C30200838C80061
:10118000C83808000000203F2000000010080808B0
:10119000C83808002038262120201800000000FE52
:1011A000020202000000007F40404000000C30C0FE
:1011B00000000000000000010638C000000202022A
:1011C000FE000000004040407F00000000000402DC
:1011D0000202040000000000000000000000000007
:1011E00000000000808080808080808000020204F7
:1011F00000000000000000000000000000008080EF
:10120000808000000019242222223F2008F800805C
:1012100080000000003F112020110E00000000801F
:1012200080800000000E11202020110000000080AE
:101230008088F800000E112020103F2000008080E0
:1012400080800000001F222222221300008080F0F4
:10125000888888180020203F20200000000080801F
:1012600080808000006B94949493600008F8008064
:1012700080800000203F210000203F2000809898BF
:10128000000000000020203F20200000000000801F
:101290009898000000C08080807F000008F800005F
:1012A00080808000203F24022D302000000808F8B4
:1012B000000000000020203F20200000808080806F
:1012C00080808000203F20003F20003F8080008001
:1012D00080800000203F210000203F20000080800F
:1012E00080800000001F202020201F0080800080C0
:1012F0008000000080FFA12020110E00000000806F
:1013000080808000000E112020A0FF80808080005F
:101310008080800020203F2120000100000080808C
:10132000808080000033242424241900008080E081
:10133000808000000000001F20200000808000004E
:1013400000808000001F202020103F20808080002F
:101350000080808000010E3008060100808000803F
:10136000008080800F300C030C300F000080800064
:10137000808080000020312E0E312000808080008F
:101380000080808080818E7018060100008080803F
:10139000808080000021302C2221300000000000DD
:1013A000807C020200000000003F4040000000007E
:1013B000FF00000000000000FF0000000002027CAF
:1013C000800000000040403F0000000000060101D6
:1013D000020204040000000000000000004042443B
:1013E0005840407F40405048C600000000000000C8
:1013F0000000000000000000000000000040444425
:101400004444444444444444FF00000000000000BD
:101410000000000000000000000000000808E829AB
:101420002E28E80808C80C0BE80808000000000097
:101430000000000000000000000000000000FF09A4
:1014400049897F00000F40807F00000000000000FD
:101450000000000000000000000000009052341066
:10146000FF10345280708F0808F808000000000058
:10147000000000000000000000000000829A566397
:1014800022528E008040330C334080000000000068
:10149000000000000000000000000000100C042408
:1014A00024242526A464240404140C000000000055
:1014B0000000000000000000000000000202020224
:1014C0000242827F020202020202020000000000C9
:1014D000000000000000000000000000000000000C
:1014E00000000000000000000000000000000000FC
:1014F0000000000000000000000000000000363680
:1015000000000000000000000000000000000000DB
:10151000000000000000000000000000000000408B
:10152000C0C0C0C0E0F0F0F878783C0000000000D7
:1015300000000000000000C0C0000080800000002B
:101540000000C04020A0E0A0A020C080000000005B
:10155000C0C0404040C0C0C040404000000000004B
:10156000000000E0E00000000000000000008080BB
:10157000C04000007000C00000000000000040C03B
:1015800000808000C04000000000404040C0C0001B
:10159000C0C00000C0400000000000000000F0D803
:1015A000ECF7FBFBFFFFFFFFFEFEFCFCF8E000009A
:1015B000000404063F86803E3F22320F87820600E9
:1015C000404023369CFC0707FCDE37236040006068
:1015D0002010180086FF81000C1830302000028295
:1015E000C242370F0F0763C2828200004464249610
:1015F000FF1AC2673F7ADA82000000881FE0C2F754
:1016000001878690FF969280000007856D3D01F866
:101610003D0F3EEBC98880000000000000001F3F26
:101620007FFFFFFFFFFFFFFFFFFFFF7F3F0F000078
:101630000000A0D000000161016101016101008092
:101640006000006303006090030300F0B0600000DE
:1016500060806000016190600000C070C0000121E6
:101660004020E0000000A090610103E06000000164
:101670006000006060E000016391D0010100F000B3
:10168000000061006000004070C001006020C001E7
:10169000016181D000010100000000000000000095
:1016A0000000000101010101000000000000000035
:1016B000000000000000000000000000000000002A
:1016C000000000000000000000000000000000001A
:1016D000000000000000000000000000000000000A
:1016E00000000000000000000000000000000000FA
:1016F00000000000000000000000000000000000EA
:1017000000000000000000000000000000000000D9
:1017100000000000000000000000000000000000C9
:1017200000000000000000000000000000000000B9
:1017300000000000000000000000000000000000A9
:101740000000000000000000000000000000000099
:101750000000000000000000000000000000000089
:101760000000000000000000000000000000000079
:101770000000000000000000000000000000000069
:101780000000000000000000000000000000000059
:101790000000000000000000000000000000E0F079
:1017A000F0F8F8F8F8F8F8F8F8F8F8F8F8F8F8F8C1
:1017B000F8F8F8F8F8F8F8F8F8F8F8F8F8F8F8F8A9
:1017C000F8F8F8F0F0E0000000000000000080E011
:1017D000F0F0F0F0F0F0F0F0F0F0F0F0F0F0F0F009
:1017E000F0F0F0F0F0F0F0F0F0F0F0F0F0F0E0C039
:1017F00000000000000000C0C0C0C0C0C0C0C0C029
:10180000C0C0C0C0C0C0F8F8F8F8F8F8C0C0C0C088
:10181000C0C0C0C0C0C0C0C0C0C000000002070738
:101820000707070707070707070707070707070748
:101830000707070707070707070707070707070738
:101840000707070787E7FB00000000000000FFFF15
:10185000FFFFFFFF0101F1F9F9FDFD7D7D7D7D7940
:101860007979F9F9F9F9F9F1E103FFFFFFFFFFFFDA
:10187000FE0000000000000F0F0F0F0F0F0F0F0FE3
:101880000F0F0F0F1F7FFFFFFFFFFFFF0F0F0F0F48
:101890000F0F0F0F0F0F0F0F0F0F000000FCFCFCBE
:1018A000FCFCFCFCFCFCFCFCFC7C1C0400000000C0
:1018B00000C0F0FCFCFCFCFC7C1C0C0000000000E8
:1018C000C0F0FCFEFFFFFF00000000000000FFFF73
:1018D000FFFFFFFF0070FDFDFEFEDECEDEDEFEFE42
:1018E000FCFEFFFFFFDF8F030000FFFFFFFFFFFF96
:1018F000FF00000000000000FCFCFCFCFCFCFCFC09
:10190000FCFCFCFCFCFCFFFFFFFFFFFFFCFCFCFC05
:10191000FCFCFCFCFCFCFCFCFC00000000FFFFFFEE
:10192000FFFFFFFFFF7F1F070100000000C0F0FC6A
:10193000FFFFFFFF7F1F070100000000C0F0FCFF5A
:10194000FFFFFFFFFFFFFF00000000000000FFFFA0
:10195000FFFFFFFF00F0F1F9FBFB7BFBFBFBF3F369
:10196000F1E1E3C3C3C3C3C3E600FFFFFFFFFFFF13
:10197000FF000000000000F8F8F8F8F8F80000FC9C
:10198000FCFCFCFCF8003CFCFCFCFCFCF8000080CF
:10199000E0F0F8FCFCFCFCFCF8F0000000FFFFFFAE
:1019A000FF3F1F070100000080E0F8FCFFFFFFFF82
:1019B0007F1F07010000000040707C7F7F7F7F7FDA
:1019C0007F7F7F7F7F7F3F00000000000000FFFFE0
:1019D000FFFFFFFF003C3E3E1E1E1E1E1E1E3E3F22
:1019E0007D7F7BFBFBFBFBFB7B00FFFFFFFFFFFF24
:1019F000FF000000000000FFFFFFFFFFFF0000FFEF
:101A0000FFFFFFFFFF8080879F9F9F9F9F9F9F8F6C
:101A1000878380809F9F9F9F9F9F0000003F0F03B1
:101A2000000000000020383E3F3F3F3F3F0F0701CE
:101A300000000000000000000000000000000000A6
:101A400000000000000000000000000000003F3F18
:101A50003F3F3F3F3F3F3F3F3F3F3F3F3F3F3F3F96
:101A60003F3F3F3F3F3F3F3F3F3F3F3F3F3F3F3F86
:101A70003F0000000000001F1F1F1F1F070000077E
:101A80001F1F3F3F3F3F3F3F3F3F3F3F3F3F3F3FA6
:101A90003F3F3F3F3F3F3F3F1F0F00000000000020
:101AA0000000000000000000000000000000000036
:101AB0000000000000000000000000000000000026
:101AC0000000000000000000000000000000000016
:101AD0000000000000000000000000000000000006
:101AE00000000000000000000000000000000000F6
:101AF00000000000000000000000000000000000E6
:101B000000000000000000000000000000000000D5
:101B10000000000000000000000000003C1B000866
:101B2000000000201C0000004C090008581B0008A1
:101B30001C000020140400005C09000800000000E4
:101B40000000000000A24A040000000000000000A5
:081B5000010203040607080965
:0400000508000131BD
:00000001FF
