:020000040800F2
:1000000050040020490100086F040008670400083C
:100010006B040008BD010008710900080000000021
:10002000000000000000000000000000CD070008F4
:100030003503000800000000A90700080D090008AA
:100040006301000863010008630100086301000800
:1000500063010008630100086301000863010008F0
:1000600063010008630100086301000863010008E0
:1000700063010008630100086301000863010008D0
:1000800063010008630100086301000863010008C0
:1000900063010008630100086301000863010008B0
:1000A00063010008630100086301000863010008A0
:1000B0006301000863010008630100086301000890
:1000C0006301000863010008630100086301000880
:1000D0006301000863010008630100086301000870
:1000E0006301000863010008630100086301000860
:1000F0006301000863010008630100086301000850
:10010000630100086301000863010008630100083F
:10011000630100086301000863010008630100082F
:10012000630100086301000863010008630100081F
:10013000DFF810D000F030F800480047AD0B0008A1
:10014000AFF300805004002006488047064800476F
:10015000FEE7FEE7FEE7FEE7FEE7FEE7FEE7FEE777
:10016000FEE7FEE7110900083101000830B50B4633
:10017000014600202022012409E021FA02F59D42D7
:1001800005D303FA02F5491B04FA02F52844151EAB
:10019000A2F10102F1DC30BD064C074D06E0E0683B
:1001A00040F0010394E8070098471034AC42F6D3BE
:1001B000FFF7C2FF80390008A039000800BFFEE742
:1001C00010B500242DE0184800784006000E1649AE
:1001D000087000BF4FF48051144800F037F9002830
:1001E000F8D01E2000F0BEFC4FF40051104800F083
:1001F0002DF930B10C48007840F001000A49087030
:1002000005E00948007820F001000749087000BFA8
:100210004FF48051054800F019F90028F8D1601C0E
:10022000C4B2082CCFDB10BD00000020002001402C
:100230000010014038B504460121080200F0B6FA6A
:100240008DF803404FF48050ADF8000003208DF886
:1002500002006946014800F06EF838BD00200140F8
:1002600010B51020FFF7E6FF4FF48051194800F059
:10027000F8F8022000F076FC4FF48051154800F0A9
:10028000EEF8142000F04AFC4FF48051114800F0C1
:10029000E8F81E2000F066FC0420FFF7CBFF4FF4C7
:1002A00080510C4800F0D2F888B900BF4FF480515B
:1002B000084800F0CBF80028F8D000BF4FF4805178
:1002C000044800F0C3F80028F8D1012010BD002038
:1002D000FCE700000020014010B50446FFF7C0FF16
:1002E000C0B1FFF76DFF124800782070FFF768FF7C
:1002F0000F4800786070FFF763FF0D480078A0702A
:10030000FFF75EFF0A480078E070FFF759FF0848E2
:1003100000782071207861780844A1780844E17859
:1003200008442179884201D1012010BD0020FCE75A
:100330000000002070472DE9F0410246002500260C
:10034000002000230024002791F803C00CF00F05C3
:1003500091F803C00CF0100CBCF1000F03D091F821
:1003600002C04CEA050591F800C0BCF1000F31D085
:10037000146800202BE04FF0010C0CFA00F3B1F8E8
:1003800000C00CEA03069E4220D183004FF00F0C00
:100390000CFA03F7BC4305FA03FC4CEA040491F899
:1003A00003C0BCF1280F06D14FF0010C0CFA00FC81
:1003B000C2F814C00AE091F803C0BCF1480F05D19F
:1003C0004FF0010C0CFA00FCC2F810C0401C0828C9
:1003D000D1D31460B1F800C0BCF1FF0F34DD546814
:1003E00000202EE000F1080C4FF0010808FA0CF391
:1003F000B1F800C00CEA03069E4221D183004FF001
:100400000F0C0CFA03F7BC4305FA03FC4CEA040496
:1004100091F803C0BCF1280F05D100F1080C08FACF
:100420000CF8C2F8148091F803C0BCF1480F07D152
:1004300000F1080C4FF0010808FA0CF8C2F810801F
:10044000401C0828CED35460BDE8F081024600204D
:1004500093680B400BB1012000E000207047416120
:1004600070470161704700BFFEE700BFFEE77047BD
:1004700070B5002419E004F1B001C8B2002100F009
:1004800051F90021022000F04DF90021102000F068
:1004900049F9002505E00121002000F043F9681C1E
:1004A000C5B2802DF7DB601CC4B2082CE3DB70BD45
:1004B00008B50121082000F079F94FF48050ADF81B
:1004C000000010208DF8030003208DF8020069461B
:1004D0005D48FFF730FF4FF40050ADF800001020EA
:1004E0008DF8030003208DF8020069465648FFF797
:1004F00022FF4FF40040ADF8000010208DF80300FB
:1005000003208DF8020069464F48FFF714FF4FF4AF
:100510008040ADF8000010208DF8030003208DF816
:10052000020069464848FFF706FF4FF480514648ED
:10053000FFF797FF4FF400514348FFF792FF4FF446
:1005400000414148FFF78DFF4FF480413E48FFF7DF
:1005500088FF0021AE2000F0E5F80021022000F025
:10056000E1F80021102000F0DDF80021402000F02B
:10057000D9F80021812000F0D5F80021CF2000F02B
:10058000D1F80021A12000F0CDF80021C82000F012
:10059000C9F80021A62000F0C5F80021A82000F02D
:1005A000C1F800213F2000F0BDF80021D32000F069
:1005B000B9F80021084600F0B5F80021D52000F078
:1005C000B1F80021802000F0ADF80021D92000F022
:1005D000A9F80021F12000F0A5F80021DA2000F0B0
:1005E000A1F80021122000F09DF80021DB2000F08E
:1005F00099F80021402000F095F80021202000F01B
:1006000091F80021022000F08DF800218D2000F0EB
:1006100089F80021142000F085F80021A42000F0C2
:1006200081F80021A62000F07DF80021AF2000F025
:1006300079F80021AF2000F075F8FFF719FF0021CD
:10064000084600F003F808BD000C014070B50446F0
:100650000D4605F1B001C8B2002100F063F8102189
:1006600041EA1410002100F05DF804F00F0141F0A0
:100670000100002100F056F870BD00002DE9F041A6
:1006800007460E46904600250024A8F12000C5B27A
:100690007F2F02DD0027B01CC6B231463846FFF777
:1006A000D5FF002408E004EB05110F4A505C01213E
:1006B00000F038F8601CC4B2082CF4DB701CC1B226
:1006C0003846FFF7C3FF002409E004EB05110831A9
:1006D000054A505C012100F025F8601CC4B2082CCA
:1006E000F3DBBDE8F0810000380E00082DE9F04191
:1006F00004460F46154600260EE0AA5D3946204600
:10070000FFF7BCFF04F10800C4B2782C02DD00241E
:10071000B81CC7B2701CC6B2A85D0028EDD1BDE8F8
:10072000F081000070B504460E462EB14FF4005122
:100730001C48FFF796FE04E04FF400511948FFF7FC
:100740008EFE4FF480511748FFF789FE00251BE00D
:100750004FF400411348FFF782FE04F0800028B1F7
:100760004FF480410F48FFF77CFE04E04FF48041D6
:100770000C48FFF774FE4FF400410A48FFF771FE82
:100780006006040E681CC5B2082DE1DB4FF48051F1
:100790000448FFF766FE4FF400510248FFF761FE80
:1007A00070BD0000000C01407047000029B1064AEE
:1007B00092690243044B9A6104E0034A92698243BE
:1007C000014B9A617047000000100240704710B55D
:1007D00000F002F810BD00000CB500200190009060
:1007E0003348006840F480303149086000BF304829
:1007F000006800F4003000900198401C01900098BF
:1008000018B90198B0F5A06FF1D12948006800F43B
:10081000003010B10120009001E00020009000980D
:10082000012843D12348006840F0100021490860A6
:100830000846006820F0030008600846006840F0A1
:10084000020008601A484068194948600846406834
:1008500048600846406840F4806048600846406848
:1008600020F47C1048600846406840F4E810486076
:100870000846006840F08070086000BF0C480068BF
:1008800000F000700028F9D00948406820F003000B
:10089000074948600846406840F00200486000BFD1
:1008A0000348406800F00C000828F9D10CBD000096
:1008B000001002400020024030B50146B1F1807FB7
:1008C00001D3012030BD21F07F40401E4FF0E022D7
:1008D000506150170F22002807DA13071D0E094B2D
:1008E00000F00F04241F1D5503E013071C0E064BD8
:1008F0001C5400BF00204FF0E022906107201061DF
:100900000020DFE718ED00E000E400E070470000A1
:1009100010B51348006840F001001149086008460E
:100920004068104908400E494860084600680E4972
:1009300008400B4908600846006820F480200860E1
:100940000846406820F4FE0048604FF41F008860AD
:10095000FFF73DFF4FF000600449086010BD000044
:10096000001002400000FFF8FFFFF6FE08ED00E077
:1009700000BFFEE70FB4084B10B504A902AA039804
:1009800000F01CF8044602A9002000F0C1F820463F
:1009900010BC5DF814FB0000110B000802E008C851
:1009A000121F08C1002AFAD170477047002001E0E9
:1009B00001C1121F002AFBD1704700002DE9FF4F33
:1009C00089B09B460446002506E025280BD05A46F0
:1009D0000B999047641C6D1C20780028F5D10DB050
:1009E0002846BDE8F08F0027B8460122474900E0BD
:1009F000074314F8013F203B02FA03F00842F7D105
:100A000020782E2819D114F8010F47F004072A285E
:100A10000ED06FF02F022078A0F1300109290CD8F8
:100A200008EB880102EB410100EB0108641CF2E7CE
:100A30000A98641C50F8048B0A9020780028CED0C5
:100A4000642808D0692806D075281ED05A460B990C
:100A500090476D1C58E00A994FF00A0901C90A91A4
:100A6000002802DA40422D2102E0390504D52B216D
:100A70008DF82010012103E0F90704D02021F7E7C9
:100A80008A4608AE0DE00021FAE70A994FF00A09FC
:100A900001C90A91F7E74946FFF768FB303106F8CC
:100AA000011D0028F7D1ADEB060000F12009780701
:100AB00001D44FF00108C84502DDA8EB090000E0B1
:100AC00000208046002706E008A85A46C05D0B9922
:100AD00090476D1C7F1C5745F6DB04E030205A46DA
:100AE0000B9990476D1CB8F10001A8F10108F5DCE5
:100AF00005E016F8010B5A460B9990476D1CB9F1A9
:100B00000001A9F10109F4DC641C65E70928010072
:100B10000A68531C0B6010707047000070B50446E3
:100B20000F4800684FF47A71B0FBF1F52846FFF7E3
:100B3000C3FE002008E000BF4FF0E021096901F486
:100B400080310029F8D0401CA042F4D34FF0E020BF
:100B5000006920F001004FF0E021086170BD000045
:100B60000400002070B504460E4800680E49B0FB32
:100B7000F1F52846FFF7A0FE002008E000BF4FF087
:100B8000E021096901F480310029F8D0401CA0421D
:100B9000F4D34FF0E020006920F001004FF0E02195
:100BA000086170BD0400002040420F001FB5FFF730
:100BB0007FFC1AE002A8FFF78FFB90B19DF80900B7
:100BC0009DF80810CDE900109DF80B309DF80A2023
:100BD00006A10E48FFF7CEFE0C4A02211820FFF7AF
:100BE00085FD4FF4FA60FFF799FFE3E754656D70F8
:100BF0003A2025642E256420202020202048756D71
:100C0000693A2025642E25640000000018000020A9
:100C10000000000000000000002F0000000007009E
:100C2000070000147F147F1400242A7F2A12006218
:100C300064081323003649552250000005030000C4
:100C400000001C224100000041221C000014083E4C
:100C500008140008083E0808000000A06000000812
:100C60000808080800006060000000201008040266
:100C7000003E5149453E0000427F40000042615124
:100C80004946002141454B31001814127F100027BE
:100C900045454539003C4A49493000017109050381
:100CA00000364949493600064949291E00003636B2
:100CB0000000000056360000000814224100001415
:100CC00014141414000041221408000201510906F2
:100CD00000324959513E007C1211127C007F494973
:100CE0004936003E41414122007F4141221C007FA4
:100CF00049494941007F09090901003E4149497AB2
:100D0000007F0808087F0000417F4100002040412B
:100D10003F01007F08142241007F40404040007F97
:100D2000020C027F007F0408107F003E4141413EDB
:100D3000007F09090906003E4151215E007F091923
:100D400029460046494949310001017F0101003F20
:100D50004040403F001F2040201F003F4038403FA0
:100D60000063140814630007087008070061514904
:100D7000454300007F41410000552A552A55000097
:100D800041417F0000040201020400404040404015
:100D9000000001020400002054545478007F4844AD
:100DA000443800384444442000384444487F0038E4
:100DB0005454541800087E0901020018A4A4A47C0D
:100DC000007F080404780000447D400000408084D7
:100DD0007D00007F102844000000417F4000007C1F
:100DE00004180478007C080404780038444444382B
:100DF00000FC242424180018242418FC007C080477
:100E0000040800485454542000043F444020003C4F
:100E10004040207C001C2040201C003C4030403CD6
:100E2000004428102844001CA0A0A07C0044645466
:100E30004C441414141414140000000000000000AA
:100E40000000000000000000000000F800000000AA
:100E5000000000333000000000100C06100C0600EB
:100E6000000000000000000040C07840C078400052
:100E7000043F04043F040400007088FC08300000B4
:100E8000001820FF211E0000F008F000E01800000C
:100E900000211C031E211E0000F0088870000000C5
:100EA0001E2123241927211010160E000000000017
:100EB0000000000000000000000000E01804020034
:100EC000000000071820400000020418E0000000A5
:100ED0000040201807000000404080F080404000A3
:100EE0000202010F01020200000000F000000000F9
:100EF0000101011F010101000000000000000000CD
:100F000080B0700000000000000000000000000041
:100F100000010101010101010000000000000000CA
:100F20000030300000000000000000008060180465
:100F3000006018060100000000E010080810E00042
:100F4000000F102020100F00001010F8000000000B
:100F50000020203F20200000007008080888700052
:100F600000302824222130000030088888483000D2
:100F70000018202020110E000000C02010F80000F2
:100F800000070424243F240000F80888880808008B
:100F90000019212020110E0000E0108888180000A0
:100FA000000F112020110E0000380808C838080072
:100FB0000000003F000000000070880808887000F2
:100FC000001C222121221C0000E010080810E00073
:100FD0000000312222110F00000000C0C0000000FC
:100FE0000000003030000000000000800000000021
:100FF0000000806000000000000080402010080019
:1010000000010204081020004040404040404000E1
:1010100004040404040404000008102040800000BC
:101020000020100804020100007048080808F000C1
:101030000000003036010000C030C828E810E00091
:101040000718272423140B000000C038E00000001C
:10105000203C23020227382008F888888870000086
:10106000203F202020110E00C0300808080838005A
:10107000071820202010080008F808080810E000D1
:10108000203F202020100F0008F88888E808100072
:10109000203F20202320180008F88888E808100046
:1010A000203F200003000000C0300808083800007E
:1010B00007182020221E020008F808000008F8087F
:1010C000203F210101213F20000808F80808000006
:1010D0000020203F2020000000000808F808080039
:1010E000C08080807F00000008F888C028180800B1
:1010F000203F20012638200008F8080000000000EA
:10110000203F20202020300008F8F800F8F80800E0
:10111000203F003F003F200008F830C00008F808DA
:10112000203F200007183F00E01008080810E000EA
:101130000F10202020100F0008F808080808F00001
:10114000203F210101010000E01008080810E00024
:101150000F18242438504F0008F8888888887000B9
:10116000203F2000030C3020007088080808380059
:101170000038202121221C00180808F8080818004F
:101180000000203F2000000008F808000008F808D0
:10119000001F202020201F000878880000C8380881
:1011A000000007380E010000F80800F80008F800F9
:1011B000033C0700073C0300081868808068180893
:1011C00020302C03032C30200838C800C838080011
:1011D0000000203F2000000010080808C838080060
:1011E0002038262120201800000000FE0202020004
:1011F0000000007F40404000000C30C000000000B4
:10120000000000010638C00000020202FE000000DB
:10121000004040407F000000000004020202040081
:1012200000000000000000000000000000000000BE
:1012300080808080808080800002020400000000A6
:10124000000000000000000000008080808000009E
:101250000019242222223F2008F80080800000008C
:10126000003F112020110E0000000080808000004F
:10127000000E112020201100000000808088F8005E
:10128000000E112020103F20000080808080000090
:10129000001F222222221300008080F088888818F4
:1012A0000020203F202000000000808080808000FF
:1012B000006B94949493600008F800808080000094
:1012C000203F210000203F2000809898000000006F
:1012D0000020203F2020000000000080989800009F
:1012E00000C08080807F000008F8000080808000BF
:1012F000203F24022D302000000808F800000000E4
:101300000020203F2020000080808080808080009E
:10131000203F20003F20003F808000808080000030
:10132000203F210000203F200000808080800000BE
:10133000001F202020201F008080008080000000EF
:1013400080FFA12020110E0000000080808080001E
:10135000000E112020A0FF8080808000808080000F
:1013600020203F212000010000008080808080003C
:101370000033242424241900008080E080800000B1
:101380000000001F202000008080000000808000FE
:10139000001F202020103F2080808000008080805F
:1013A00000010E30080601008080008000808080EF
:1013B0000F300C030C300F00008080008080800014
:1013C0000020312E0E31200080808000008080803F
:1013D00080818E70180601000080808080808000EF
:1013E0000021302C2221300000000000807C02020D
:1013F00000000000003F404000000000FF0000002F
:1014000000000000FF0000000002027C80000000DD
:101410000040403F000000000006010102020404F9
:101420000000000000000000004042445840407F9F
:1014300040405048C60000000000000000000000CE
:1014400000000000000000000040444444444444C4
:1014500044444444FF00000000000000000000007D
:1014600000000000000000000808E8292E28E80815
:1014700008C80C0BE808080000000000000000008D
:1014800000000000000000000000FF0949897F0003
:10149000000F40807F0000000000000000000000FE
:1014A000000000000000000090523410FF10345281
:1014B00080708F0808F8080000000000000000009D
:1014C0000000000000000000829A566322528E0045
:1014D0008040330C3340800000000000000000001A
:1014E0000000000000000000100C04242424252625
:1014F000A464240404140C00000000000000000098
:101500000000000000000000020202020242827F8E
:1015100002020202020202000000000000000000BD
:1015200000000000000000000000000000000000BB
:1015300000000000000000000000000000000000AB
:10154000000000000000000000003636000000002F
:10155000000000000000000000000000000000008B
:10156000000000000000000000000000000000007B
:10157000000000000000000000000000000000006B
:10158000000000000000000000000000000000005B
:10159000000000000000000000000000000000004B
:1015A000000000000000000000000000000000003B
:1015B000000000000000000000000000000000002B
:1015C00000000000000000000080C0E0F0F0F078B3
:1015D000000000000000000000000000000000000B
:1015E00000000000000000000000000000000000FB
:1015F000000000000000000000000080C0C0C0E04B
:10160000E0E0E0E0C0C0C0809E8FCFCFC7E3E1E064
:10161000E0E0E0C0C080000000000000000000002A
:1016200000000000000000000000000000000000BA
:101630000000000000000080F8FEFFFFFFFFFFFF3A
:10164000FFFFFFFFFFFFFFFFFFFFFFFFFFFFFFFFAA
:10165000FFFFFF3F0F070300000000000000000035
:10166000000000000000000000000000000000007A
:10167000000000000000001FFFFFFFFFFFFFFFFF53
:10168000FFFFFFFFFFFFFFFFFFFFFFFFFFFFFFFF6A
:10169000FFFFFFF0C080000000000000000000001D
:1016A000000000000000000000000000000000003A
:1016B0000000000000000000010F3F7FFFFFFFFF60
:1016C000FFFFFFFFFFFFFFFFFFFFFFFFFFFFFFFF2A
:1016D000FFFFFFFFFFFF3F0E0000000000000000C3
:1016E00000000000000000000000000000000000FA
:1016F0000000000000000000000000000103070FD0
:101700000F1F1F0F0F070707070707070F0F1F1FE1
:101710000F0F0703010000000000000000000000A0
:1017200000000000000000000000000000000000B9
:1017300000000000000000000000000000000000A9
:101740000000000000000000000000000000000099
:101750000000000000000000000000000000000089
:101760000000000000000000000000000000000079
:101770000000000000000000000000000000000069
:101780000000000000000000000000000000000059
:101790000000000000000000000000000000000049
:1017A0000000000000000000000000000000000039
:1017B0000000000000000000000000000000000029
:1017C0000000000000000000000000000000000019
:1017D0000000000000000000000000000000000009
:1017E00000000000000000000000000000000000F9
:1017F00000000000000000000000000000000000E9
:101800000000000080C040404040404040404080D8
:101810000000804040404040404080800000008008
:1018200040C08000000080804080000000000080F8
:10183000C0404040404040404080000000000080E8
:101840000040404040808000000000000000000098
:101850000000000000000000000000000000000088
:101860000000000000000000000000000000000078
:101870000000000000000000000000000000000068
:101880000000000000010100FA0600FE0000010156
:101890000000FF00FE0301000202FC0107FC00FF44
:1018A00000009B4866831964C2010000000000002C
:1018B00081C12111CD67330804030000F88601FCC3
:1018C000060280800286F801867800000000000091
:1018D0000000000000000000000000000000000008
:1018E00000000000000000000000000000000000F8
:1018F0000000000000000000000000000000F018E0
:1019000008080888888888080D060007080808085D
:10191000088C070083820282828180848B888807FA
:1019200000008F8808080B0400018688080804025C
:10193000018082030082020202020C08088B8600EA
:101940000182838A898988121598888888888808FE
:101950000810E0000000000000000000000000008F
:101960000000000000000000000000000000000077
:101970000000000000000000000000000000FF0068
:101980000080DCDFDF5F59585858585BDFDFDFC865
:10199000000F8FFFFFE70F00010101FFFF010100B2
:1019A0000011FFFFFF11627F7FE3E3E36B7F7F02A4
:1019B00000F7F7B7FFFFFFF7F7E102FF02FFFF00B5
:1019C00000A7E7FD7C3F372323272774FFFFB700DD
:1019D0000000FF0000000000000000000000000008
:1019E00000000000000000000000000000000000F7
:1019F0000000000000000000000000000000FF00E8
:101A000000081F1F1F10101010101010181F1F1F8C
:101A100000001F1F031F1C001010181F1F000000D4
:101A200000101F1F0F001010101F1F1F1810100094
:101A3000001F1F0F1F1F1F1F1F1F0003181F1F0046
:101A4000001F1F1B131F1F0E0E1F1F131B1F1F0026
:101A50000000FF0000000000000000000000000087
:101A60000000000000000000000000000000000076
:101A70000000000000000000000000000000010164
:101A80000202020202020202020202020202020236
:101A90000202020202020202020202020202020226
:101AA0000202020202020202020202020202020216
:101AB0000202020202020202020202020202020206
:101AC00002020202020202020202020202020202F6
:101AD0000201000000000000000000000000000003
:101AE00000000000000000000000000000000000F6
:101AF00000000000000000000000000000000000E6
:101B000000000000000000000000000000000000D5
:101B100000000000000000000000000000000000C5
:101B200000000000000000000000000000000000B5
:101B300000000000000000000000000000000000A5
:101B40000000000000000000000000000000000095
:101B50000000000000000000000000000000000085
:101B6000000000000000000000000000000080C035
:101B70006020301010180808080818101030206075
:101B8000C080000000000000000000F03C070100E1
:101B900000008000000000000080C06030100000E5
:101BA0000001073CF00000000000000F3CE0800056
:101BB0000000010102040C06030100000000000007
:101BC0000000603C0F000000000000000000010366
:101BD00006040C080818101010101808080C04004F
:101BE00000000000000000000000000000000000F5
:101BF00000000000000000000000000000000000E5
:101C000000000000000000000000000000000000D4
:101C100000000000000000000000000000000000C4
:101C200000000000000000000000000000000000B4
:101C300000000000000000000000000000000000A4
:101C40000000000000000000000000000000000094
:101C50000000000000000000000000000000000084
:101C60000000000000000000CECECECECEDE9E3EB4
:101C70007EFEFEFEFEFEFEFEFCFCF000000000000C
:101C80000000000000000000000000000000000054
:101C90000000000000000000F0FCFCFEFEFEFEFE66
:101CA000FEFE7E3E9EDECECECECECEDE9E3E7EFEC4
:101CB000FEFEFEFEFEFEFCFCF00000000000000048
:101CC0000000000000000000000000000000000014
:101CD0000000000000F0FCFCFEFEFEFEFEFEFE7EAC
:101CE0003E9EDECECECECECECF9F1F9FCFFFFF7FBC
:101CF0001CC1FFFFFFFFFFFFFFFFFF000000000010
:101D000000000000000000000000000000000000D3
:101D10000000000000000000FFFFFFFFFFFFFFFFCB
:101D2000FFC1187FFFFFCF9F1F9FCFFFFF7F1CC109
:101D3000FFFFFFFFFFFFFFFFFF00000000000000AC
:101D40000000000000000000000000000000000093
:101D50000000000000FFFFFFFFFFFFFFFFFFC118B3
:101D60007FFFFFCF9F1F9FCFAFA7A0A7AFE7F0FEDA
:101D7000FFFFFFFFFFFFFFFFFFFFFF00000000006E
:101D80000000000000000000000000000000000053
:101D90000000000000000000FFFFFFFFFFFFFFFF4B
:101DA000FFFFFFFEF0E3AFA7A0A7AFE7F0FEFFFF46
:101DB000FFFFFFFFFFFFFFFFFF000000000000002C
:101DC0000000000000000000000000000000000013
:101DD0000000000000FFFFFFFFFFFFFFFFFFFFFF0E
:101DE000FEF0E3AFA7A0A7AF0707FF0787F70787B6
:101DF000F707878707FFFFFFFFFF7F000000000056
:101E000000000000000000000000000000000000D2
:101E100000000000000000007FFFFFFFFFFFFFFF4A
:101E2000FF0301ED81137F0F17474F8F07770101E4
:101E3000FFFFFFFFFFFFFFFF7F000000000000002B
:101E40000000000000000000000000000000000092
:101E500000000000007FFFFFFFFF83017D6D0D9FED
:101E60008F07E787075747FF0303030303030303B2
:101E70000303030303030303010100000000000048
:101E80000000000000000000000000000000000052
:101E90000000000000000000000101030303030331
:101EA0000303030303030303030303030303030302
:101EB000030303030303010100000000000000000E
:101EC0000000000000000000000000000000000012
:101ED00000000000000001010303030303030303E8
:101EE000030303030303030304048484040404843A
:101EF0008404840404840484848484048484040422
:101F00000404040404040404040404040404040491
:101F10000404040404040404040404040404040481
:101F200004040404040404048404040404040404F1
:101F30000404040404040404040404040404040461
:101F40000404040404040404040404040404040451
:101F500004040404048404048484848484048404C1
:101F6000048404840484040400001F04030619107C
:101F7000190E011E0E071C071F1414001F041B005E
:101F80000000000000000000000000000000000051
:101F90000000000000000000000000000000000041
:101FA0000000000000101C1F1F1F1C10000000007C
:101FB0000000000000000000000000000000000021
:101FC0000000000000000000000000000000000011
:101FD00000000000001F0F1C071F1F1414001F0328
:101FE0000C1F001F101F0000000000000000000078
:101FF00000000000000000000000000000000000E1
:1020000000000000000000000000000000000000D0
:1020100000000000000000000000000000000000C0
:1020200000000000000000000000000000000000B0
:1020300000000000000000000000000000000000A0
:102040000000000000000000000000000000000090
:102050000000000000000000000000000000000080
:102060000000000000000000CECECECECEDE9E3EB0
:102070007EFEFEFEFEFEFEFEFCFCF0000000000008
:102080000000000000000000000000000000000050
:102090000000000000000000F0FCFCFEFEFEFEFE62
:1020A000FEFE7E3E9EDECECECECECEDE9E3E7EFEC0
:1020B000FEFEFEFEFEFEFCFCF00000000000000044
:1020C0000000000000000000000000000000000010
:1020D0000000000000F0FCFCFEFEFEFEFEFEFE7EA8
:1020E0003E9EDECECECECECECF9F1F9FCFFFFF7FB8
:1020F0001CC1FFFFFFFFFFFFFFFFFF00000000000C
:1021000000000000000000000000000000000000CF
:102110000000000000000000FFFFFFFFFFFFFFFFC7
:10212000FFC1187FFFFFCF9F1F9FCFFFFF7F1CC105
:10213000FFFFFFFFFFFFFFFFFF00000000000000A8
:10214000000000000000000000000000000000008F
:102150000000000000FFFFFFFFFFFFFFFFFFC118AF
:102160007FFFFFCF9F1F9FCFAFA7A0A7AFE7F0FED6
:10217000FFFFFFFFFFFFFFFFFFFFFF00000000006A
:10218000000000000000000000000000000000004F
:102190000000000000000000FFFFFFFFFFFFFFFF47
:1021A000FFFFFFFEF0E3AFA7A0A7AFE7F0FEFFFF42
:1021B000FFFFFFFFFFFFFFFFFF0000000000000028
:1021C000000000000000000000000000000000000F
:1021D0000000000000FFFFFFFFFFFFFFFFFFFFFF0A
:1021E000FEF0E3AFA7A0A7AF0F17474F8F07770108
:1021F00001FFFFFFFFFFFFFFFFFF7F000000000068
:1022000000000000000000000000000000000000CE
:1022100000000000000000007FFFFFFFFF83017D42
:102220006D0D9F8F07E787075747FF8F075747FFBA
:102230000787F7079FFFFFFF7F00000000000000F7
:10224000000000000000000000000000000000008E
:1022500000000000007FFFFFFFFFFFFFFF01016D97
:1022600001938101FF070F0F03030303030303031C
:102270000303030303030303010100000000000044
:10228000000000000000000000000000000000004E
:10229000000000000000000000010103030303032D
:1022A00003030303030303030303030303030303FE
:1022B000030303030303010100000000000000000A
:1022C000000000000000000000000000000000000E
:1022D00000000000000001010303030303030303E4
:1022E0000303030303030303040484840404048436
:1022F000840484040484048484848404848404041E
:10230000040404040404040404040404040404048D
:10231000040404040404040404040404040404047D
:1023200004040404040404048404040404040404ED
:10233000040404040404040404040404040404045D
:10234000040404040404040404040404040404044D
:1023500004040404048404048484848484048404BD
:10236000048404840484040400001F040306191078
:10237000190E011E0E071C071F1414001F041B005A
:10238000000000000000000000000000000000004D
:10239000000000000000000000000000000000003D
:1023A0000000000000101C1F1F1F1C100000000078
:1023B000000000000000000000000000000000001D
:1023C000000000000000000000000000000000000D
:1023D00000000000001F0F1C071F1F1414001F0324
:1023E0000C1F001F101F0000000000000000000074
:1023F00000000000000000000000000000000000DD
:1024000000000000000000000000000000000000CC
:1024100000000000000000000000000000000000BC
:1024200000000000000000000000000000000000AC
:10243000000000000000000000000000000000009C
:10244000000000000000000000000000000000008C
:10245000000000000000000000000000000000007C
:102460000000000000000000CECECECECEDE9E3EAC
:102470007EFEFEFEFEFEFEFEFCFCF0000000000004
:10248000000000000000000000000000000000004C
:102490000000000000000000F0FCFCFEFEFEFEFE5E
:1024A000FEFE7E3E9EDECECECECECEDE9E3E7EFEBC
:1024B000FEFEFEFEFEFEFCFCF00000000000000040
:1024C000000000000000000000000000000000000C
:1024D0000000000000F0FCFCFEFEFEFEFEFEFE7EA4
:1024E0003E9EDECECECECECECF9F1F9FCFFFFF7FB4
:1024F0001CC1FFFFFFFFFFFFFFFFFF000000000008
:1025000000000000000000000000000000000000CB
:102510000000000000000000FFFFFFFFFFFFFFFFC3
:10252000FFC1187FFFFFCF9F1F9FCFFFFF7F1CC101
:10253000FFFFFFFFFFFFFFFFFF00000000000000A4
:10254000000000000000000000000000000000008B
:102550000000000000FFFFFFFFFFFFFFFFFFC118AB
:102560007FFFFFCF9F1F9FCFAFA7A0A7AFE7F0FED2
:10257000FFFFFFFFFFFFFFFFFFFFFF000000000066
:10258000000000000000000000000000000000004B
:102590000000000000000000FFFFFFFFFFFFFFFF43
:1025A000FFFFFFFEF0E3AFA7A0A7AFE7F0FEFFFF3E
:1025B000FFFFFFFFFFFFFFFFFF0000000000000024
:1025C000000000000000000000000000000000000B
:1025D0000000000000FFFFFFFFFFFFFFFFFFFFFF06
:1025E000FEF0E3AFA7A0A7AF87075747FF8F0757B6
:1025F00047FF07F7F707FFFFFFFF7F00000000001E
:1026000000000000000000000000000000000000CA
:1026100000000000000000007FFFFFFFFFFFFFFF42
:1026200001016D01FF0101FF077F7F07FF071757BA
:1026300047FFFFFFFFFFFFFF7F00000000000000DB
:10264000000000000000000000000000000000008A
:1026500000000000007FFFFFFFFFFFFF83017D7D83
:102660007DDF0777078FDF070303030303030303FC
:102670000303030303030303010100000000000040
:10268000000000000000000000000000000000004A
:102690000000000000000000000101030303030329
:1026A00003030303030303030303030303030303FA
:1026B0000303030303030101000000000000000006
:1026C000000000000000000000000000000000000A
:1026D00000000000000001010303030303030303E0
:1026E0000303030303030303040484840404048432
:1026F000840484040484048484848404848404041A
:102700000404040404040404040404040404040489
:102710000404040404040404040404040404040479
:1027200004040404040404048404040404040404E9
:102730000404040404040404040404040404040459
:102740000404040404040404040404040404040449
:1027500004040404048404048484848484048404B9
:10276000048404840484040400001F040306191074
:10277000190E011E0E071C071F1414001F041B0056
:102780000000000000000000000000000000000049
:102790000000000000000000000000000000000039
:1027A0000000000000101C1F1F1F1C100000000074
:1027B0000000000000000000000000000000000019
:1027C0000000000000000000000000000000000009
:1027D00000000000001F0F1C071F1F1414001F0320
:1027E0000C1F001F101F0000000000000000000070
:1027F00000000000000000000000000000000000D9
:1028000000000000000000000000000000000000C8
:1028100000000000000000000000000000000000B8
:1028200000000000000000000000000000000000A8
:102830000000000000000000000000000000000098
:102840000000000000000000000000000000000088
:102850000000000000000000000000000000000078
:102860000000000000000000CECECECECEDE9E3EA8
:102870007EFEFEFEFEFEFEFEFCFCF0000000000000
:102880000000000000000000000000000000000048
:102890000000000000000000F0FCFCFEFEFEFEFE5A
:1028A000FEFE7E3E9EDECECECECECEDE9E3E7EFEB8
:1028B000FEFEFEFEFEFEFCFCF0000000000000003C
:1028C0000000000000000000000000000000000008
:1028D0000000000000F0FCFCFEFEFEFEFEFEFE7EA0
:1028E0003E9EDECECECECECECF9F1F9FCFFFFF7FB0
:1028F0001CC1FFFFFFFFFFFFFFFFFF000000000004
:1029000000000000000000000000000000000000C7
:102910000000000000000000FFFFFFFFFFFFFFFFBF
:10292000FFC1187FFFFFCF9F1F9FCFFFFF7F1CC1FD
:10293000FFFFFFFFFFFFFFFFFF00000000000000A0
:102940000000000000000000000000000000000087
:102950000000000000FFFFFFFFFFFFFFFFFFC118A7
:102960007FFFFFCF9F1F9FCFAFA7A0A7AFE7F0FECE
:10297000FFFFFFFFFFFFFFFFFFFFFF000000000062
:102980000000000000000000000000000000000047
:102990000000000000000000FFFFFFFFFFFFFFFF3F
:1029A000FFFFFFFEF0E3AFA7A0A7AFE7F0FEFFFF3A
:1029B000FFFFFFFFFFFFFFFFFF0000000000000020
:1029C0000000000000000000000000000000000007
:1029D0000000000000FFFFFFFFFFFFFFFFFFFFFF02
:1029E000FEF0E3AFA7A0A7AF01FF077F7F07FF0FB0
:1029F00017474FFFFFFFFFFFFFFF7F0000000000B2
:102A000000000000000000000000000000000000C6
:102A100000000000000000007FFFFFFFFFFFFF83BA
:102A2000017D7D7DDF0777078FDF0777078FFF0148
:102A300001FFFFFFFFFFFFFF7F000000000000001D
:102A40000000000000000000000000000000000086
:102A500000000000007FFFFFFFFFFFFFFFF1010FFD
:102A6000C1810F81F937170703030303030303032E
:102A7000030303030303030301010000000000003C
:102A80000000000000000000000000000000000046
:102A90000000000000000000000101030303030325
:102AA00003030303030303030303030303030303F6
:102AB0000303030303030101000000000000000002
:102AC0000000000000000000000000000000000006
:102AD00000000000000001010303030303030303DC
:102AE000030303030303030304048484040404842E
:102AF0008404840404840484848484048484040416
:102B00000404040404040404040404040404040485
:102B10000404040404040404040404040404040475
:102B200004040404040404048404040404040404E5
:102B30000404040404040404040404040404040455
:102B40000404040404040404040404040404040445
:102B500004040404048404048484848484048404B5
:102B6000048404840484040400001F040306191070
:102B7000190E011E0E071C071F1414001F041B0052
:102B80000000000000000000000000000000000045
:102B90000000000000000000000000000000000035
:102BA0000000000000101C1F1F1F1C100000000070
:102BB0000000000000000000000000000000000015
:102BC0000000000000000000000000000000000005
:102BD00000000000001F0F1C071F1F1414001F031C
:102BE0000C1F001F101F000000000000000000006C
:102BF00000000000000000000000000000000000D5
:102C000000000000000000000000000000000000C4
:102C100000000000000000000000000000000000B4
:102C200000000000000000000000000000000000A4
:102C30000000000000000000000000000000000094
:102C40000000000000000000000000000000000084
:102C50000000000000000000000000000000000074
:102C60000000000000000000CECECECECEDE9E3EA4
:102C70007EFEFEFEFEFEFEFEFCFCF00000000000FC
:102C80000000000000000000000000000000000044
:102C90000000000000000000F0FCFCFEFEFEFEFE56
:102CA000FEFE7E3E9EDECECECECECEDE9E3E7EFEB4
:102CB000FEFEFEFEFEFEFCFCF00000000000000038
:102CC0000000000000000000000000000000000004
:102CD0000000000000F0FCFCFEFEFEFEFEFEFE7E9C
:102CE0003E9EDECECECECECECF9F1F9FCFFFFF7FAC
:102CF0001CC1FFFFFFFFFFFFFFFFFF000000000000
:102D000000000000000000000000000000000000C3
:102D10000000000000000000FFFFFFFFFFFFFFFFBB
:102D2000FFC1187FFFFFCF9F1F9FCFFFFF7F1CC1F9
:102D3000FFFFFFFFFFFFFFFFFF000000000000009C
:102D40000000000000000000000000000000000083
:102D50000000000000FFFFFFFFFFFFFFFFFFC118A3
:102D60007FFFFFCF9F1F9FCFAFA7A0A7AFE7F0FECA
:102D7000FFFFFFFFFFFFFFFFFFFFFF00000000005E
:102D80000000000000000000000000000000000043
:102D90000000000000000000FFFFFFFFFFFFFFFF3B
:102DA000FFFFFFFEF0E3AFA7A0A7AFE7F0FEFFFF36
:102DB000FFFFFFFFFFFFFFFFFF000000000000001C
:102DC0000000000000000000000000000000000003
:102DD0000000000000FFFFFFFFFFFFFFFFFFFFFFFE
:102DE000FEF0E3AFA7A0A7AF77078FDF0777078FC6
:102DF000FF0101FFFFFFFFFFFFFF7F00000000005A
:102E000000000000000000000000000000000000C2
:102E100000000000000000007FFFFFFFFFF1010F36
:102E2000C1810F81F917170707FF0707F7FF07F79A
:102E30000707F707FFFFFFFF7F000000000000000B
:102E40000000000000000000000000000000000082
:102E500000000000007FFFFFFFFFFFFFFF0101ED0B
:102E60008113FF0F17474F8F03030303030303036C
:102E70000303030303030303010100000000000038
:102E80000000000000000000000000000000000042
:102E90000000000000000000000101030303030321
:102EA00003030303030303030303030303030303F2
:102EB00003030303030301010000000000000000FE
:102EC0000000000000000000000000000000000002
:102ED00000000000000001010303030303030303D8
:102EE000030303030303030304048484040404842A
:102EF0008404840404840484848484048484040412
:102F00000404040404040404040404040404040481
:102F10000404040404040404040404040404040471
:102F200004040404040404048404040404040404E1
:102F30000404040404040404040404040404040451
:102F40000404040404040404040404040404040441
:102F500004040404048404048484848484048404B1
:102F6000048404840484040400001F04030619106C
:102F7000190E011E0E071C071F1414001F041B004E
:102F80000000000000000000000000000000000041
:102F90000000000000000000000000000000000031
:102FA0000000000000101C1F1F1F1C10000000006C
:102FB0000000000000000000000000000000000011
:102FC0000000000000000000000000000000000001
:102FD00000000000001F0F1C071F1F1414001F0318
:102FE0000C1F001F101F0000FF0F0000000000005A
:102FF00000000000000000000000000000000000D1
:1030000000000000000000000000000000000000C0
:1030100000000000000000000000000000000000B0
:1030200000000000000000000000000000000000A0
:103030000000000000000000000000000000000090
:103040000000000000000000000000000000000080
:103050000000000000000000000000000000000070
:103060000000000000000000000000000000000060
:103070000000000000000000000000000000000050
:103080000000000000000000000000000000000040
:103090000000000000000000000000000000000030
:1030A0000000000000000000000000000000F0FC34
:1030B000FCFEFEFEFEFEBE3E7EFEFEFEFE1E1EFE72
:1030C000FEFEFE7E3E3EFEFEFEFEFEFEFCFCF00030
:1030D00000000000000000000000000000000000F0
:1030E00000000000000000000000000000000000E0
:1030F00000000000000000000000000000000000D0
:1031000000000000000000000000000000000000BF
:1031100000000000000000000000000000000000AF
:103120000000000000000000000000000000FFFFA1
:10313000FFFFFFFFFF0F07F2F2F3F3F3F3F2F2F3F7
:10314000F3F3F3F2F2070FFFFFFFFFFFFFFFFF00B4
:10315000000000000000000000000000000000006F
:10316000000000000000000000000000000000005F
:10317000000000000000000000000000000000004F
:10318000000000000000000000000000000000003F
:10319000000000000000000000000000000000002F
:1031A0000000000000000000000000000000FFFF21
:1031B000FFFFFFFFFFFEFCF9F3E307FFFF0F0FFF29
:1031C000FF07E3F3F9FCFEFFFFFFFFFFFFFFFF0038
:1031D00000000000000000000000000000000000EF
:1031E00000000000000000000000000000000000DF
:1031F00000000000000000000000000000000000CF
:1032000000000000000000000000000000000000BE
:1032100000000000000000000000000000000000AE
:1032200000000000000000000000000000007FFF20
:10323000FFFFFFFFFFFFFFFFFFFFC0CFCFCFCFCFCD
:10324000CFC0FFFFFFFFFFFFFFFFFFFFFFFF7F007C
:10325000000000000000000000000000000000006E
:10326000000000000000000000000000000000005E
:10327000000000000000000000000000000000004E
:10328000000000000000000000000000000000003E
:10329000000000000000000000000000000000002E
:1032A000000000000000000000000000000000011D
:1032B00001030303030303030303030303030303E0
:1032C00003030303030303030303030301010000D8
:1032D00000000000000000000000000000000000EE
:1032E00000000000000000000000000000000000DE
:1032F00000000000000000000000000000000404C6
:10330000848484040484848404840484040484847D
:1033100004048404040404040404040404040404ED
:1033200004040404040404040404040484848404DD
:10333000040404040404040484040404840404044D
:1033400004040404048484048404840404048404BD
:10335000040404040404040404040404040404042D
:10336000040404040404040404040404040404041D
:103370000404040404840484048484840404000095
:103380001F10190F0F1910190F0F1E071F1F011FF4
:10339000030E1F00000000000000000000000000FD
:1033A0000000000000000000000000001F10190FC6
:1033B0000C12120C0E101E001F12120C1F001C1AF1
:1033C0000C0404000F1010001F001E0C12121F0C22
:1033D0001A000000000000000000000000000000D3
:1033E00000000000000000000000000000000000DD
:1033F00000000000001F101F001F04070000000055
:1034000000000000000000000000000000000000BC
:1034100000000000000000000000000000000000AC
:10342000000000000000000000000000000000009C
:10343000000000000000000000000000000000008C
:10344000000000000000000000000000000000007C
:10345000000000000000000000000000000000006C
:10346000000000000000000000000000000000005C
:10347000000000000000000000000000000000004C
:10348000000000000000000000000000000000003C
:10349000000000000000000000000000000000002C
:1034A0000000000000000000000000000000F0FC30
:1034B000FCFEFEFEFEFEFEFEFEFEFEFEFEFEFEFE2E
:1034C000FEFEFEFEFEFEFEFEFEFEFEFEFCFCF0002C
:1034D00000000000000000000000000000000000EC
:1034E00000000000000000000000000000000000DC
:1034F00000000000000000000000000000000000CC
:1035000000000000000000000000000000000000BB
:1035100000000000000000000000000000000000AB
:103520000000000000000000000000000000FFFF9D
:10353000FFFFFFFFFF0301F9F9F9F9F9F9F9F9F9CB
:10354000F9F9F9F9F90103FFFFFFFFFFFFFFFF00A2
:10355000000000000000000000000000000000006B
:10356000000000000000000000000000000000005B
:10357000000000000000000000000000000000004B
:10358000000000000000000000000000000000003B
:10359000000000000000000000000000000000002B
:1035A0000000000000000000000000000000FFFF1D
:1035B000FFFFFFFFFFFEFCF8F10307FFFF8F07FF90
:1035C000FF0703F1F8FCFEFFFFFFFFFFFFFFFF0017
:1035D00000000000000000000000000000000000EB
:1035E00000000000000000000000000000000000DB
:1035F00000000000000000000000000000000000CB
:1036000000000000000000000000000000000000BA
:1036100000000000000000000000000000000000AA
:1036200000000000000000000000000000007FFF1C
:10363000FFFFFFFFFFFFFFFFFFE0C0CFCFCFCFCFE8
:10364000CFC0E0FFFFFFFFFFFFFFFFFFFFFF7F0097
:10365000000000000000000000000000000000006A
:10366000000000000000000000000000000000005A
:10367000000000000000000000000000000000004A
:10368000000000000000000000000000000000003A
:10369000000000000000000000000000000000002A
:1036A0000000000000000000000000000000000119
:1036B00001030303030303030303030303030303DC
:1036C00003030303030303030303030301010000D4
:1036D00000000000000000000000000000000000EA
:1036E00000000000000000000000000000000000DA
:1036F00000000000000000000000000000000404C2
:103700008484840404848484048404840404848479
:1037100004048404040404040404040404040404E9
:1037200004040404040404040404040484848404D9
:1037300004040404040404040404040484040404C9
:1037400004040404048484048404840404048404B9
:103750000404040404040404040404040404040429
:103760000404040404040404040404040404040419
:103770000404040404840484048484840404000091
:103780001F10190F0F1910190F0F1E071F1F011FF0
:10379000030E1F00000000000000000000000000F9
:1037A0000000000000000000000000001F10190FC2
:1037B0000C12120C0E101E001F12120C1F001C1AED
:1037C0000C0404000F1010001F001E0C12121F0C1E
:1037D0001A000000000000000000000000000000CF
:1037E00000000000000000000000000000000000D9
:1037F00000000000001F101F001F04070000000051
:1038000000000000000000000000000000000000B8
:1038100000000000000000000000000000000000A8
:103820000000000000000000000000000000000098
:10383000000080E0E0F0F0F0F0F0F0F0F0F0F0F0F8
:10384000F0F0F0F0F0F0F0F0F0F0F0F0F0F0F0F078
:10385000F0F0F0F0F0F0F0E0E08080000000000018
:103860000000FFFFFFFFFFFFFFFFFFFF7363477FC6
:103870007F7F7F7F6060617F7F7F7F7F476373FF94
:10388000FFFFFFFFFFFFFFFFFFFFFF000000000043
:103890000000FFFFFFFFFFFFFFFF8100007EFEFE35
:1038A000FEFEFEFEFEFEFEFEFEFEFEFEFE7C0000B6
:1038B00081FFFFFFFFFFFFFFFFFFFF000000000091
:1038C0000000FFFFFFFFFFFFFFFFFFFFFEFCF8F11F
:1038D0000307FFFF87078FFFFF0303F1F8FCFEFFDD
:1038E000FFFFFFFFFFFFFFFFFFFFFF0000000000E3
:1038F0000000FFFFFFFFFFFFFFFFFFFFFFFFFFFFD6
:1039000080001F1F1F1F1F1F1F00C0FFFFFFFFFFA3
:10391000FFFFFFFFFFFFFFFFFFFFFF0000000000B2
:1039200000000107071F1F1F1F1F1F1F1F1F1F1F33
:103930001F1F1F1F1F1F1F1F1F1F1F1F1F1F1F1F97
:103940001F1F1F1F1F1F1F0707010100000000008E
:103950000000000000000000000000000000000067
:103960000000000000000000000000000000000057
:103970000000000000000000000000000000000047
:10398000A039000800000020180000009C09000871
:10399000B83900081800002038040000AC090008FD
:1039A0000000000000A24A04000000000000000027
:0839B0000102030406070809E7
:0400000508000131BD
:00000001FF
